:100000000C9434000C943E000C943E000C943E0082
:100010000C943E000C943E000C943E000C943E0068
:100020000C943E000C943E000C943E000C943E0058
:100030000C943E000C943E000C943E000C943E0048
:100040000C943E000C943E000C943E000C943E0038
:100050000C943E000C943E000C943E000C943E0028
:100060000C943E000C943E0011241FBECFEFD8E04C
:10007000DEBFCDBF0E9440000C945E000C940000D7
:100080008AB1806F8AB984B5836884BD85B5816083
:1000900085BD91E080E0992331F08F5F91E08F3F43
:1000A00029F490E003C0815091E0D9F787BDEFE3D8
:1000B000FCE93197F1F700C00000EDCFF894FFCFD5
:00000001FF
