:100000000C9434000C943E000C943E000C943E0082
:100010000C943E000C943E000C943E000C943E0068
:100020000C943E000C943E000C943E000C943E0058
:100030000C943E000C943E000C943E000C943E0048
:100040000C943E000C943E000C943E000C943E0038
:100050000C943E000C943E000C943E000C943E0028
:100060000C943E000C943E0011241FBECFEFD8E04C
:10007000DEBFCDBF0E945C000C9487000C94000092
:100080008FE787BD8093B3002FEF83ED90E321507E
:1000900080409040E1F700C0000008951092B30046
:1000A0008FEF87BD2FEF83ED90E32150804090408C
:1000B000E1F700C0000008958AB18FEF8AB995B1C9
:1000C00085B988E08BB95A9A84B5816884BD85B5B5
:1000D000816085BD8091B00083688093B00080917D
:1000E000B10081608093B1005C9A0E9440000E9440
:1000F0004E000E9440000E944E000E9440000E945C
:100100004E000E9440000E944E001BB8FFCFF894A2
:02011000FFCF1F
:00000001FF
