:100000000C9434000C943E000C943E000C943E0082
:100010000C943E000C943E000C943E000C943E0068
:100020000C943E000C943E000C943E000C943E0058
:100030000C943E000C943E000C943E000C943E0048
:100040000C943E000C943E000C943E000C943E0038
:100050000C943E000C943E000C943E000C943E0028
:100060000C943E000C943E0011241FBECFEFD8E04C
:10007000DEBFCDBF0E9440000C94BC000C94000079
:100080008AB18FEF8AB995B185B998E09BB95A9A30
:1000900094B59B6894BD95B5916095BD9091B00065
:1000A00093689093B0009091B10091609093B100EB
:1000B0005C9A1092B30087BD2FEF31EF4BE22150D5
:1000C00030404040E1F700C000001092B30087BD0F
:1000D0009FEF21EF3BE2915020403040E1F700C01C
:1000E00000001092B30087BD4FEF91EF2BE241501B
:1000F00090402040E1F700C0000096E997BD909342
:10010000B3003FEF43ED20E3315040402040E1F7A2
:1001100000C0000097BD9093B3003FEF43ED90E324
:10012000315040409040E1F700C000008093B300A0
:1001300017BC2FEF31EF4BE2215030404040E1F748
:1001400000C000008093B30017BC9FEF21EF3BE29B
:10015000915020403040E1F700C000008093B30090
:1001600017BC4FEF81EF9BE2415080409040E1F798
:0C01700000C000001BB8FFCFF894FFCFC8
:00000001FF
