:020000040000FA
:100000000C9434000C9449000C9449000C94490061
:100010000C9449000C9449000C9449000C9449003C
:100020000C9449000C9449000C9449000C9449002C
:100030000C9449000C9449000C9449000C9449001C
:100040000C9449000C9449000C9449000C9449000C
:100050000C9449000C9449000C9449000C944900FC
:100060000C9449000C94490011241FBECFEFD8E036
:10007000DEBFCDBF11E0A0E0B1E0EAEDF1E002C0EB
:1000800005900D92AC35B107D9F70E944B000C9446
:10009000EB000C940000CF93DF93CDB7DEB7CC55C7
:1000A000D1090FB6F894DEBF0FBECDBF84B1836017
:1000B00084B9809180008064809380008091810069
:1000C0008960809381008CE5E0E0F1E0DE0111962B
:1000D00001900D928A95E1F78E010F5F1F4F7E010F
:1000E00029EBE20EF11C812C94E2992E94EFA92EBB
:1000F000B12C0E151F0521F1F801C280D38020819B
:10010000318184E0220F331F8A95E1F750E040E00F
:10011000C501B4010E94AA00309389002093880091
:1001200090E080E0C816D90641F0EFE9FFE0319792
:10013000F1F700C000000196F5CF0C5F1F4FD9CF3B
:10014000FFEF21E18AE7F15020408040E1F700C055
:100150000000FFCF052E97FB1EF400940E94C10003
:1001600057FD07D00E94C90007FC03D04EF40C9441
:10017000C10050954095309521953F4F4F4F5F4FAF
:10018000089590958095709561957F4F8F4F9F4F03
:100190000895A1E21A2EAA1BBB1BFD010DC0AA1FC8
:1001A000BB1FEE1FFF1FA217B307E407F50720F0E0
:1001B000A21BB30BE40BF50B661F771F881F991F5B
:1001C0001A9469F760957095809590959B01AC01A4
:1001D000BD01CF010895F894FFCF0B02E803B801E9
:1001E000E8035D01E8030501E80325014D0149012C
:1001F0004D015D014D012501F4015D014D01050138
:10020000E8030501E8032501E8031501E803B80147
:10021000E8035D01E80325014D0149014D015D0140
:100220004D018701F401B8014D018701E803870101
:06023000E8038701E8036A
:107E0000112484B714BE81FFF0D085E080938100F7
:107E100082E08093C00088E18093C10086E0809377
:107E2000C20080E18093C4008EE0C9D0259A86E02C
:107E300020E33CEF91E0309385002093840096BBD3
:107E4000B09BFECF1D9AA8958150A9F7CC24DD24C4
:107E500088248394B5E0AB2EA1E19A2EF3E0BF2EE7
:107E6000A2D0813461F49FD0082FAFD0023811F036
:107E7000013811F484E001C083E08DD089C08234E0
:107E800011F484E103C0853419F485E0A6D080C0E4
:107E9000853579F488D0E82EFF2485D0082F10E0AE
:107EA000102F00270E291F29000F111F8ED06801E7
:107EB0006FC0863521F484E090D080E0DECF843638
:107EC00009F040C070D06FD0082F6DD080E0C81688
:107ED00080E7D80618F4F601B7BEE895C0E0D1E017
:107EE00062D089930C17E1F7F0E0CF16F0E7DF06D8
:107EF00018F0F601B7BEE89568D007B600FCFDCFD4
:107F0000A601A0E0B1E02C9130E011968C91119780
:107F100090E0982F8827822B932B1296FA010C0160
:107F200087BEE89511244E5F5F4FF1E0A038BF0790
:107F300051F7F601A7BEE89507B600FCFDCF97BE46
:107F4000E89526C08437B1F42ED02DD0F82E2BD052
:107F50003CD0F601EF2C8F010F5F1F4F84911BD097
:107F6000EA94F801C1F70894C11CD11CFA94CF0C13
:107F7000D11C0EC0853739F428D08EE10CD085E9AC
:107F80000AD08FE07ACF813511F488E018D01DD067
:107F900080E101D065CF982F8091C00085FFFCCF94
:107FA0009093C60008958091C00087FFFCCF809118
:107FB000C00084FD01C0A8958091C6000895E0E648
:107FC000F0E098E1908380830895EDDF803219F02E
:107FD00088E0F5DFFFCF84E1DECF1F93182FE3DFCA
:107FE0001150E9F7F2DF1F91089580E0E8DFEE27F6
:047FF000FF270994CA
:027FFE00040479
:00000001FF
