:100000000C9475000C947F000C947F000C947F007E
:100010000C947F000C947F000C947F000C947F0064
:100020000C947F000C947F000C947F000C947F0054
:100030000C947F000C947F000C947F000C947F0044
:100040000C947F000C947F000C947F000C947F0034
:100050000C947F000C947F000C947F000C947F0024
:100060000C947F000C947F0007634236B79BD8A79F
:100070001A39685618AEBAAB558C1D3CB7CC5763CD
:10008000BD6DEDFD753EF6177231BF000000803F7B
:1000900008000000BE922449123EABAAAA2ABECD97
:1000A000CCCC4C3E00000080BEABAAAAAA3E000009
:1000B0000000BF000000803F000000000008417801
:1000C000D3BB4387D1133D190E3CC3BD4282AD2B38
:1000D0003E68EC8276BED98FE1A93E4C80EFFFBE30
:1000E00001C4FF7F3F000000000011241FBECFEFBE
:1000F000D8E0DEBFCDBF0E94B9000C9420060C945E
:100100000000CF92DF92EF92FF92CF93DF93EC014A
:10011000CB010197BC01990F880B990B0E94A20398
:100120006B017C01BE01DD0F880B990B0E94A203BD
:1001300020E030E040E451E40E94FF029B01AC016A
:10014000C701B6010E9493029B01AC0160E070E020
:1001500080E090E40E949B0420E030E040E052E424
:100160000E942E04DF91CF91FF90EF90DF90CF900F
:10017000089584B1836084B9809180008064809305
:10018000800080918100896080938100D0E0C0E090
:10019000BE0190E080E00E94810020E030E040E07D
:1001A00051E40E942E049B01AC010E9493029B012A
:1001B000AC0160E074E284E79BE40E94FF020E94CD
:1001C000710370938900609388002FEF89E698E1AE
:1001D000215080409040E1F700C00000BE0181E066
:1001E00090E00E94810020E030E040E051E40E9475
:1001F0002E049B01AC010E9493029B01AC0160E0C4
:1002000074E284E79BE40E94FF020E9471037093F2
:100210008900609388002FEF89E698E121508040A3
:100220009040E1F700C00000BE0182E090E00E9433
:10023000810020E030E040E051E40E942E049B0168
:10024000AC010E9493029B01AC0160E074E284E780
:100250009BE40E94FF020E947103709389006093E7
:1002600088002FEF89E698E1215080409040E1F727
:1002700000C00000BE0183E090E00E94810020E009
:1002800030E040E051E40E942E049B01AC010E944A
:1002900093029B01AC0160E074E284E79BE40E945E
:1002A000FF020E94710370938900609388002FEF12
:1002B00089E698E1215080409040E1F700C00000BD
:1002C000BE0184E090E00E94810020E030E040E048
:1002D00051E40E942E049B01AC010E9493029B01F9
:1002E000AC0160E074E284E79BE40E94FF020E949C
:1002F000710370938900609388002FEF89E698E17D
:10030000215080409040E1F700C00000BE0185E030
:1003100090E00E94810020E030E040E051E40E9443
:100320002E049B01AC010E9493029B01AC0160E092
:1003300074E284E79BE40E94FF020E9471037093C1
:100340008900609388002FEF89E698E12150804072
:100350009040E1F700C00000BE0186E090E00E94FE
:10036000810020E030E040E051E40E942E049B0137
:10037000AC010E9493029B01AC0160E074E284E74F
:100380009BE40E94FF020E947103709389006093B6
:1003900088002FEF89E698E1215080409040E1F7F6
:1003A00000C00000BE0187E090E00E94810020E0D4
:1003B00030E040E051E40E942E049B01AC010E9419
:1003C00093029B01AC0160E074E284E79BE40E942D
:1003D000FF020E94710370938900609388002FEFE1
:1003E00089E698E1215080409040E1F700C000008C
:1003F000BE0188E090E00E94810020E030E040E013
:1004000051E40E942E049B01AC010E9493029B01C7
:10041000AC0160E074E284E79BE40E94FF020E946A
:10042000710370938900609388002FEF89E698E14B
:10043000215080409040E1F700C00000BE0189E0FB
:1004400090E00E94810020E030E040E051E40E9412
:100450002E049B01AC010E9493029B01AC0160E061
:1004600074E284E79BE40E94FF020E947103709390
:100470008900609388002FEF89E698E12150804041
:100480009040E1F700C00000BE018AE090E00E94C9
:10049000810020E030E040E051E40E942E049B0106
:1004A000AC010E9493029B01AC0160E074E284E71E
:1004B0009BE40E94FF020E94710370938900609385
:1004C00088002FEF89E698E1215080409040E1F7C5
:1004D00000C00000BE018BE090E00E94810020E09F
:1004E00030E040E051E40E942E049B01AC010E94E8
:1004F00093029B01AC0160E074E284E79BE40E94FC
:10050000FF020E94710370938900609388002FEFAF
:1005100089E698E1215080409040E1F700C000005A
:10052000219636CE5058BB27AA270E94AA020C94C7
:10053000F4030E94E60338F00E94ED0320F039F442
:100540009F3F19F426F40C94E3030EF4E095E7FBC7
:100550000C94DD03E92F0E94050458F3BA176207D3
:1005600073078407950720F079F4A6F50C94270407
:100570000EF4E0950B2EBA2FA02D0B01B9019001BE
:100580000C01CA01A0011124FF27591B99F0593F02
:1005900050F4503E68F11A16F040A22F232F342F4A
:1005A0004427585FF3CF469537952795A795F04098
:1005B0005395C9F77EF41F16BA0B620B730B840BAD
:1005C000BAF09150A1F0FF0FBB1F661F771F881F65
:1005D000C2F70EC0BA0F621F731F841F48F48795BD
:1005E00077956795B795F7959E3F08F0B0CF9395AF
:1005F000880F08F09927EE0F9795879508950E9428
:1006000013030C94F4030E94ED0358F00E94E603D8
:1006100040F029F45F3F29F00C94DD0351110C9454
:1006200028040C94E3030E94050468F39923B1F3B2
:10063000552391F3951B550BBB27AA276217730708
:10064000840738F09F5F5F4F220F331F441FAA1F9C
:10065000A9F335D00E2E3AF0E0E832D09150504058
:10066000E695001CCAF72BD0FE2F29D0660F771F06
:10067000881FBB1F261737074807AB07B0E809F0EC
:10068000BB0B802DBF01FF2793585F4F3AF09E3F71
:10069000510578F00C94DD030C9428045F3FE4F3DB
:1006A000983ED4F3869577956795B795F7959F5FB4
:1006B000C9F7880F911D9695879597F90895E1E000
:1006C000660F771F881FBB1F621773078407BA075F
:1006D00020F0621B730B840BBA0BEE1F88F7E095BA
:1006E00008950E940D0488F09F5798F0B92F99271C
:1006F000B751B0F0E1F0660F771F881F991F1AF00D
:10070000BA95C9F714C0B13091F00E942704B1E046
:1007100008950C942704672F782F8827B85F39F045
:10072000B93FCCF3869577956795B395D9F73EF4A5
:1007300090958095709561957F4F8F4F9F4F08954D
:10074000E89409C097FB3EF490958095709561956B
:100750007F4F8F4F9F4F9923A9F0F92F96E9BB2721
:100760009395F695879577956795B795F111F8CF9D
:10077000FAF4BB0F11F460FF1BC06F5F7F4F8F4F08
:100780009F4F16C0882311F096E911C0772321F0FE
:100790009EE8872F762F05C0662371F096E8862F96
:1007A00070E060E02AF09A95660F771F881FDAF7ED
:1007B000880F9695879597F9089597F99F6780E830
:1007C00070E060E008959FEF80EC089500240A94A3
:1007D0001616170618060906089500240A9412161C
:1007E0001306140605060895092E0394000C11F44F
:1007F000882352F0BB0F40F4BF2B11F460FF04C0FC
:100800006F5F7F4F8F4F9F4F089557FD9058440F54
:10081000551F59F05F3F71F04795880F97FB991F5F
:1008200061F09F3F79F0879508951216130614061C
:10083000551FF2CF4695F1DF08C0161617061806A9
:10084000991FF1CF86957105610508940895E89484
:10085000BB2766277727CB0197F908950E944104AB
:100860000C94F4030E94E60338F00E94ED0320F09C
:10087000952311F00C94DD030C94E30311240C94E4
:1008800028040E94050470F3959FC1F3950F50E072
:10089000551F629FF001729FBB27F00DB11D639F32
:1008A000AA27F00DB11DAA1F649F6627B00DA11DD8
:1008B000661F829F2227B00DA11D621F739FB00D7E
:1008C000A11D621F839FA00D611D221F749F3327EE
:1008D000A00D611D231F849F600D211D822F762F87
:1008E0006A2F11249F5750409AF0F1F088234AF064
:1008F000EE0FFF1FBB1F661F771F881F91505040D0
:10090000A9F79E3F510580F00C94DD030C94280458
:100910005F3FE4F3983ED4F3869577956795B79556
:10092000F795E7959F5FC1F7FE2B880F911D969570
:10093000879597F90895FA01EE0FFF1F309621056C
:100940003105A1F16115710561F48038BFE39B07A2
:1009500049F168949038810561F08038BFEF9B07BA
:1009600041F099234AF5FF3FE1053105210519F1D1
:10097000E8940894E795D901AA2329F4AB2FBE2F58
:10098000F85FD0F310C0FF5F70F4A695E0F7F73979
:1009900050F019F0FF3A38F49F779F930DD00F90E5
:1009A00007FC9058089546F00C94E30360E070E073
:1009B00080E89FE308954FE79F775F934F933F93BE
:1009C0002F930E9496052F913F914F915F910E9426
:1009D0002E040C94F30429F416F00C94DD030C940B
:1009E00027040C94E3030E940D04A8F39638A0F7A3
:1009F00007F80F92E8942BE33AEA48EB5FE70E948E
:100A000044040F920F920F924DB75EB70F920E945F
:100A1000DE05E8E6F0E00E9425054F915F91EF9139
:100A2000FF91E595EE1FFF1F49F0FE57E068442750
:100A3000EE0F441FFA95E1F74195550B0E945805BA
:100A40000F9007FE0C944C050895DF93CF931F93EE
:100A50000F93FF92EF92DF927B018C01689406C0A6
:100A6000DA2EEF010E944104FE01E894A591259140
:100A7000359145915591A6F3EF010E94AA02FE011E
:100A80009701A801DA9469F7DF90EF90FF900F913A
:100A90001F91CF91DF9108959B01AC0160E070E060
:100AA00080E89FE30C94FF020C94DD030C94120683
:100AB0000E940D04D8F39923C9F3940F511DA3F399
:100AC0009150504094F059F0882332F0660F771F10
:100AD000881F91505040C1F79E3F51052CF7880F59
:100AE000911D9695879597F908955F3FACF0983ED4
:100AF0009CF0BB27869577956795B79508F4B1600C
:100B00009395C1F7BB0F58F711F460FFE8CF6F5F03
:100B10007F4F8F4F9F4FE3CF0C94280416F00C9417
:100B200012060C94E30368940C94DD030E940D04F8
:100B3000A8F39923C1F3AEF3DF93CF931F930F93E1
:100B4000FF92C92FDD2788232AF02197660F771F90
:100B5000881FDAF720E030E040E85FEB9FE3883958
:100B600020F0803E38F021968F770E949302E0E9D2
:100B7000F0E004C00E949302EDEBF0E00E94250536
:100B80008B01BE01EC01FB2E6F5771097595771F24
:100B9000880B990B0E94A20328E132E741E35FE34F
:100BA0000E944104AF2D9801AE01FF900F911F915B
:100BB000CF91DF910E94AA020C94F403FA01DC01A8
:100BC000AA0FBB1F9B01AC01BF5728F42227332774
:100BD0004427507820C0B75190F4AB2F002446959D
:100BE00037952795011CA395D2F3002071F0220FB1
:100BF000331F441FB395DAF30ED00C949202613088
:100C00007105A0E88A07B94630F49B01AC0166275C
:100C1000772788279078309621F02083318342838C
:100C2000538308959F3F31F0915020F48795779535
:100C30006795B795880F911D9695879597F90895B3
:040C4000F894FFCF56
:00000001FF
