:100000000C9434000C9449000C9449000C94490061
:100010000C9449000C9449000C9449000C9449003C
:100020000C9449000C9449000C9449000C9449002C
:100030000C9449000C9449000C9449000C9449001C
:100040000C9449000C9449000C9449000C9449000C
:100050000C9449000C9449000C9449000C944900FC
:100060000C9449000C94490011241FBECFEFD8E036
:10007000DEBFCDBF11E0A0E0B1E0EAEDF1E002C0EB
:1000800005900D92AC35B107D9F70E944B000C9446
:10009000EB000C940000CF93DF93CDB7DEB7CC55C7
:1000A000D1090FB6F894DEBF0FBECDBF84B1836017
:1000B00084B9809180008064809380008091810069
:1000C0008960809381008CE5E0E0F1E0DE0111962B
:1000D00001900D928A95E1F78E010F5F1F4F7E010F
:1000E00029EBE20EF11C812C94E2992E94EFA92EBB
:1000F000B12C0E151F0521F1F801C280D38020819B
:10010000318184E0220F331F8A95E1F750E040E00F
:10011000C501B4010E94AA00309389002093880091
:1001200090E080E0C816D90641F0EFE9FFE0319792
:10013000F1F700C000000196F5CF0C5F1F4FD9CF3B
:10014000FFEF21E18AE7F15020408040E1F700C055
:100150000000FFCF052E97FB1EF400940E94C10003
:1001600057FD07D00E94C90007FC03D04EF40C9441
:10017000C10050954095309521953F4F4F4F5F4FAF
:10018000089590958095709561957F4F8F4F9F4F03
:100190000895A1E21A2EAA1BBB1BFD010DC0AA1FC8
:1001A000BB1FEE1FFF1FA217B307E407F50720F0E0
:1001B000A21BB30BE40BF50B661F771F881F991F5B
:1001C0001A9469F760957095809590959B01AC01A4
:0A01D000BD01CF010895F894FFCFA0
:1001DA000B02E803B801E8035D01E8030501E8033F
:1001EA0025014D0149014D015D014D012501F40132
:1001FA005D014D010501E8030501E8032501E80356
:10020A001501E803B801E8035D01E80325014D0182
:10021A0049014D015D014D018701F401B8014D010C
:0C022A008701E8038701E8038701E8036F
:00000001FF
